{
  "contractName": "BallerToken",
  "abi": [
    {
      "constant": true,
      "inputs": [],
      "name": "name",
      "outputs": [
        {
          "name": "",
          "type": "string"
        }
      ],
      "payable": false,
      "stateMutability": "view",
      "type": "function"
    },
    {
      "constant": false,
      "inputs": [
        {
          "name": "_to",
          "type": "address"
        },
        {
          "name": "_tokenId",
          "type": "uint256"
        }
      ],
      "name": "approve",
      "outputs": [],
      "payable": false,
      "stateMutability": "nonpayable",
      "type": "function"
    },
    {
      "constant": true,
      "inputs": [],
      "name": "totalSupply",
      "outputs": [
        {
          "name": "",
          "type": "uint256"
        }
      ],
      "payable": false,
      "stateMutability": "view",
      "type": "function"
    },
    {
      "constant": true,
      "inputs": [
        {
          "name": "_tokenId",
          "type": "uint256"
        }
      ],
      "name": "approvedFor",
      "outputs": [
        {
          "name": "",
          "type": "address"
        }
      ],
      "payable": false,
      "stateMutability": "view",
      "type": "function"
    },
    {
      "constant": true,
      "inputs": [
        {
          "name": "_owner",
          "type": "address"
        }
      ],
      "name": "tokensOf",
      "outputs": [
        {
          "name": "",
          "type": "uint256[]"
        }
      ],
      "payable": false,
      "stateMutability": "view",
      "type": "function"
    },
    {
      "constant": true,
      "inputs": [
        {
          "name": "_tokenId",
          "type": "uint256"
        }
      ],
      "name": "ownerOf",
      "outputs": [
        {
          "name": "",
          "type": "address"
        }
      ],
      "payable": false,
      "stateMutability": "view",
      "type": "function"
    },
    {
      "constant": true,
      "inputs": [
        {
          "name": "_owner",
          "type": "address"
        }
      ],
      "name": "balanceOf",
      "outputs": [
        {
          "name": "",
          "type": "uint256"
        }
      ],
      "payable": false,
      "stateMutability": "view",
      "type": "function"
    },
    {
      "constant": true,
      "inputs": [],
      "name": "owner",
      "outputs": [
        {
          "name": "",
          "type": "address"
        }
      ],
      "payable": false,
      "stateMutability": "view",
      "type": "function"
    },
    {
      "constant": true,
      "inputs": [],
      "name": "symbol",
      "outputs": [
        {
          "name": "",
          "type": "string"
        }
      ],
      "payable": false,
      "stateMutability": "view",
      "type": "function"
    },
    {
      "constant": true,
      "inputs": [
        {
          "name": "",
          "type": "uint256"
        }
      ],
      "name": "ballers",
      "outputs": [
        {
          "name": "name",
          "type": "string"
        },
        {
          "name": "species",
          "type": "string"
        },
        {
          "name": "strength",
          "type": "uint256"
        },
        {
          "name": "speed",
          "type": "uint256"
        },
        {
          "name": "shot",
          "type": "uint256"
        },
        {
          "name": "pass",
          "type": "uint256"
        },
        {
          "name": "confidence",
          "type": "uint256"
        },
        {
          "name": "age",
          "type": "uint256"
        },
        {
          "name": "position",
          "type": "uint256"
        },
        {
          "name": "height",
          "type": "uint256"
        },
        {
          "name": "shift",
          "type": "uint256"
        }
      ],
      "payable": false,
      "stateMutability": "view",
      "type": "function"
    },
    {
      "constant": false,
      "inputs": [
        {
          "name": "_to",
          "type": "address"
        },
        {
          "name": "_tokenId",
          "type": "uint256"
        }
      ],
      "name": "transfer",
      "outputs": [],
      "payable": false,
      "stateMutability": "nonpayable",
      "type": "function"
    },
    {
      "constant": false,
      "inputs": [
        {
          "name": "_tokenId",
          "type": "uint256"
        }
      ],
      "name": "takeOwnership",
      "outputs": [],
      "payable": false,
      "stateMutability": "nonpayable",
      "type": "function"
    },
    {
      "constant": false,
      "inputs": [
        {
          "name": "newOwner",
          "type": "address"
        }
      ],
      "name": "transferOwnership",
      "outputs": [],
      "payable": false,
      "stateMutability": "nonpayable",
      "type": "function"
    },
    {
      "anonymous": false,
      "inputs": [
        {
          "indexed": true,
          "name": "previousOwner",
          "type": "address"
        },
        {
          "indexed": true,
          "name": "newOwner",
          "type": "address"
        }
      ],
      "name": "OwnershipTransferred",
      "type": "event"
    },
    {
      "anonymous": false,
      "inputs": [
        {
          "indexed": true,
          "name": "_from",
          "type": "address"
        },
        {
          "indexed": true,
          "name": "_to",
          "type": "address"
        },
        {
          "indexed": false,
          "name": "_tokenId",
          "type": "uint256"
        }
      ],
      "name": "Transfer",
      "type": "event"
    },
    {
      "anonymous": false,
      "inputs": [
        {
          "indexed": true,
          "name": "_owner",
          "type": "address"
        },
        {
          "indexed": true,
          "name": "_approved",
          "type": "address"
        },
        {
          "indexed": false,
          "name": "_tokenId",
          "type": "uint256"
        }
      ],
      "name": "Approval",
      "type": "event"
    },
    {
      "constant": false,
      "inputs": [
        {
          "name": "_name",
          "type": "string"
        },
        {
          "name": "_species",
          "type": "string"
        },
        {
          "name": "_strength",
          "type": "uint256"
        },
        {
          "name": "_speed",
          "type": "uint256"
        },
        {
          "name": "_shot",
          "type": "uint256"
        },
        {
          "name": "_pass",
          "type": "uint256"
        },
        {
          "name": "_confidence",
          "type": "uint256"
        },
        {
          "name": "_age",
          "type": "uint256"
        },
        {
          "name": "_position",
          "type": "uint256"
        },
        {
          "name": "_height",
          "type": "uint256"
        },
        {
          "name": "_shift",
          "type": "uint256"
        }
      ],
      "name": "mint",
      "outputs": [],
      "payable": true,
      "stateMutability": "payable",
      "type": "function"
    },
    {
      "constant": false,
      "inputs": [
        {
          "name": "_points",
          "type": "uint256"
        },
        {
          "name": "_assists",
          "type": "uint256"
        },
        {
          "name": "_rebounds",
          "type": "uint256"
        },
        {
          "name": "_steals",
          "type": "uint256"
        },
        {
          "name": "_blocks",
          "type": "uint256"
        },
        {
          "name": "_turnovers",
          "type": "uint256"
        },
        {
          "name": "_tokenId",
          "type": "uint256"
        },
        {
          "name": "_derivative",
          "type": "uint256"
        }
      ],
      "name": "develop",
      "outputs": [],
      "payable": false,
      "stateMutability": "nonpayable",
      "type": "function"
    },
    {
      "constant": true,
      "inputs": [
        {
          "name": "_ballerId",
          "type": "uint256"
        }
      ],
      "name": "getBaller",
      "outputs": [
        {
          "name": "",
          "type": "string"
        },
        {
          "name": "",
          "type": "string"
        },
        {
          "name": "",
          "type": "uint256"
        },
        {
          "name": "",
          "type": "uint256"
        },
        {
          "name": "",
          "type": "uint256"
        },
        {
          "name": "",
          "type": "uint256"
        },
        {
          "name": "",
          "type": "uint256"
        },
        {
          "name": "",
          "type": "uint256"
        },
        {
          "name": "",
          "type": "uint256"
        },
        {
          "name": "",
          "type": "uint256"
        },
        {
          "name": "",
          "type": "uint256"
        }
      ],
      "payable": false,
      "stateMutability": "view",
      "type": "function"
    }
  ],
  "bytecode": "0x608060405233600560006101000a81548173ffffffffffffffffffffffffffffffffffffffff021916908373ffffffffffffffffffffffffffffffffffffffff160217905550612039806100546000396000f3006080604052600436106100e6576000357c0100000000000000000000000000000000000000000000000000000000900463ffffffff16806306fdde03146100eb578063095ea7b31461017b57806318160ddd146101c8578063268b23d9146101f35780632a6dd48f146102665780634159bb3b146102d35780635a3f2672146104245780636352211e146104bc57806370a08231146105295780638da5cb5b1461058057806395d89b41146105d75780639eaf2bd014610667578063a9059cbb146107b8578063b2e6ceeb14610805578063d9fd894014610832578063f2fde38b1461092e575b600080fd5b3480156100f757600080fd5b50610100610971565b6040518080602001828103825283818151815260200191508051906020019080838360005b83811015610140578082015181840152602081019050610125565b50505050905090810190601f16801561016d5780820380516001836020036101000a031916815260200191505b509250505060405180910390f35b34801561018757600080fd5b506101c6600480360381019080803573ffffffffffffffffffffffffffffffffffffffff169060200190929190803590602001909291905050506109aa565b005b3480156101d457600080fd5b506101dd610b3d565b6040518082815260200191505060405180910390f35b3480156101ff57600080fd5b506102646004803603810190808035906020019092919080359060200190929190803590602001909291908035906020019092919080359060200190929190803590602001909291908035906020019092919080359060200190929190505050610b46565b005b34801561027257600080fd5b5061029160048036038101908080359060200190929190505050610e5b565b604051808273ffffffffffffffffffffffffffffffffffffffff1673ffffffffffffffffffffffffffffffffffffffff16815260200191505060405180910390f35b3480156102df57600080fd5b506102fe60048036038101908080359060200190929190505050610e98565b6040518080602001806020018c81526020018b81526020018a815260200189815260200188815260200187815260200186815260200185815260200184815260200183810383528e818151815260200191508051906020019080838360005b8381101561037857808201518184015260208101905061035d565b50505050905090810190601f1680156103a55780820380516001836020036101000a031916815260200191505b5083810382528d818151815260200191508051906020019080838360005b838110156103de5780820151818401526020810190506103c3565b50505050905090810190601f16801561040b5780820380516001836020036101000a031916815260200191505b509d505050505050505050505050505060405180910390f35b34801561043057600080fd5b50610465600480360381019080803573ffffffffffffffffffffffffffffffffffffffff1690602001909291905050506110e1565b6040518080602001828103825283818151815260200191508051906020019060200280838360005b838110156104a857808201518184015260208101905061048d565b505050509050019250505060405180910390f35b3480156104c857600080fd5b506104e760048036038101908080359060200190929190505050611178565b604051808273ffffffffffffffffffffffffffffffffffffffff1673ffffffffffffffffffffffffffffffffffffffff16815260200191505060405180910390f35b34801561053557600080fd5b5061056a600480360381019080803573ffffffffffffffffffffffffffffffffffffffff1690602001909291905050506111f6565b6040518082815260200191505060405180910390f35b34801561058c57600080fd5b50610595611242565b604051808273ffffffffffffffffffffffffffffffffffffffff1673ffffffffffffffffffffffffffffffffffffffff16815260200191505060405180910390f35b3480156105e357600080fd5b506105ec611268565b6040518080602001828103825283818151815260200191508051906020019080838360005b8381101561062c578082015181840152602081019050610611565b50505050905090810190601f1680156106595780820380516001836020036101000a031916815260200191505b509250505060405180910390f35b34801561067357600080fd5b50610692600480360381019080803590602001909291905050506112a1565b6040518080602001806020018c81526020018b81526020018a815260200189815260200188815260200187815260200186815260200185815260200184815260200183810383528e818151815260200191508051906020019080838360005b8381101561070c5780820151818401526020810190506106f1565b50505050905090810190601f1680156107395780820380516001836020036101000a031916815260200191505b5083810382528d818151815260200191508051906020019080838360005b83811015610772578082015181840152602081019050610757565b50505050905090810190601f16801561079f5780820380516001836020036101000a031916815260200191505b509d505050505050505050505050505060405180910390f35b3480156107c457600080fd5b50610803600480360381019080803573ffffffffffffffffffffffffffffffffffffffff1690602001909291908035906020019092919050505061143a565b005b34801561081157600080fd5b506108306004803603810190808035906020019092919050505061148d565b005b61092c600480360381019080803590602001908201803590602001908080601f0160208091040260200160405190810160405280939291908181526020018383808284378201915050505050509192919290803590602001908201803590602001908080601f01602080910402602001604051908101604052809392919081815260200183838082843782019150505050505091929192908035906020019092919080359060200190929190803590602001909291908035906020019092919080359060200190929190803590602001909291908035906020019092919080359060200190929190803590602001909291905050506114b8565b005b34801561093a57600080fd5b5061096f600480360381019080803573ffffffffffffffffffffffffffffffffffffffff169060200190929190505050611652565b005b6040805190810160405280600b81526020017f42616c6c6572546f6b656e00000000000000000000000000000000000000000081525081565b6000813373ffffffffffffffffffffffffffffffffffffffff166109cd82611178565b73ffffffffffffffffffffffffffffffffffffffff161415156109ef57600080fd5b6109f883611178565b91508173ffffffffffffffffffffffffffffffffffffffff168473ffffffffffffffffffffffffffffffffffffffff1614151515610a3557600080fd5b6000610a4084610e5b565b73ffffffffffffffffffffffffffffffffffffffff16141580610a7a575060008473ffffffffffffffffffffffffffffffffffffffff1614155b15610b3757836002600085815260200190815260200160002060006101000a81548173ffffffffffffffffffffffffffffffffffffffff021916908373ffffffffffffffffffffffffffffffffffffffff1602179055508373ffffffffffffffffffffffffffffffffffffffff168273ffffffffffffffffffffffffffffffffffffffff167f8c5be1e5ebec7d5bd14f71427d1e84f3dd0314c0f7b2291e5b200ac8c7c3b925856040518082815260200191505060405180910390a35b50505050565b60008054905090565b610b4e611ee1565b600683815481101515610b5d57fe5b90600052602060002090600b02016101606040519081016040529081600082018054600181600116156101000203166002900480601f016020809104026020016040519081016040528092919081815260200182805460018160011615610100020316600290048015610c115780601f10610be657610100808354040283529160200191610c11565b820191906000526020600020905b815481529060010190602001808311610bf457829003601f168201915b50505050508152602001600182018054600181600116156101000203166002900480601f016020809104026020016040519081016040528092919081815260200182805460018160011615610100020316600290048015610cb35780601f10610c8857610100808354040283529160200191610cb3565b820191906000526020600020905b815481529060010190602001808311610c9657829003601f168201915b505050505081526020016002820154815260200160038201548152602001600482015481526020016005820154815260200160068201548152602001600782015481526020016008820154815260200160098201548152602001600a820154815250509050606460048261014001518401878a010202811515610d3257fe5b04816040018181510191508181525050606460048261014001518401888b010202811515610d5c57fe5b048160600181815101915081815250506064600582610140015184018b0202811515610d8457fe5b048160800181815101915081815250506064600482610140015184018a0202811515610dac57fe5b048160a0018181510191508181525050606460088261014001518401868a8d01030202811515610dd857fe5b048160c001818151019150818152505060018160e0018181510191508181525050600a60068260400151811515610e0b57fe5b04880360098360a00151811515610e1e57fe5b048a0360038460800151811515610e3157fe5b048c030101811515610e3f57fe5b0481610140018181510191508181525050505050505050505050565b60006002600083815260200190815260200160002060009054906101000a900473ffffffffffffffffffffffffffffffffffffffff169050919050565b6060806000806000806000806000806000610eb1611ee1565b60068d815481101515610ec057fe5b90600052602060002090600b02016101606040519081016040529081600082018054600181600116156101000203166002900480601f016020809104026020016040519081016040528092919081815260200182805460018160011615610100020316600290048015610f745780601f10610f4957610100808354040283529160200191610f74565b820191906000526020600020905b815481529060010190602001808311610f5757829003601f168201915b50505050508152602001600182018054600181600116156101000203166002900480601f0160208091040260200160405190810160405280929190818152602001828054600181600116156101000203166002900480156110165780601f10610feb57610100808354040283529160200191611016565b820191906000526020600020905b815481529060010190602001808311610ff957829003601f168201915b505050505081526020016002820154815260200160038201548152602001600482015481526020016005820154815260200160068201548152602001600782015481526020016008820154815260200160098201548152602001600a820154815250509050806000015181602001518260400151836060015184608001518560a001518660c001518760e001518861010001518961012001518a61014001518a9a508999509b509b509b509b509b509b509b509b509b509b509b505091939597999b90929496989a50565b6060600360008373ffffffffffffffffffffffffffffffffffffffff1673ffffffffffffffffffffffffffffffffffffffff16815260200190815260200160002080548060200260200160405190810160405280929190818152602001828054801561116c57602002820191906000526020600020905b815481526020019060010190808311611158575b50505050509050919050565b6000806001600084815260200190815260200160002060009054906101000a900473ffffffffffffffffffffffffffffffffffffffff169050600073ffffffffffffffffffffffffffffffffffffffff168173ffffffffffffffffffffffffffffffffffffffff16141515156111ed57600080fd5b80915050919050565b6000600360008373ffffffffffffffffffffffffffffffffffffffff1673ffffffffffffffffffffffffffffffffffffffff168152602001908152602001600020805490509050919050565b600560009054906101000a900473ffffffffffffffffffffffffffffffffffffffff1681565b6040805190810160405280600481526020017f42414c4c0000000000000000000000000000000000000000000000000000000081525081565b6006818154811015156112b057fe5b90600052602060002090600b0201600091509050806000018054600181600116156101000203166002900480601f01602080910402602001604051908101604052809291908181526020018280546001816001161561010002031660029004801561135c5780601f106113315761010080835404028352916020019161135c565b820191906000526020600020905b81548152906001019060200180831161133f57829003601f168201915b505050505090806001018054600181600116156101000203166002900480601f0160208091040260200160405190810160405280929190818152602001828054600181600116156101000203166002900480156113fa5780601f106113cf576101008083540402835291602001916113fa565b820191906000526020600020905b8154815290600101906020018083116113dd57829003601f168201915b50505050509080600201549080600301549080600401549080600501549080600601549080600701549080600801549080600901549080600a015490508b565b803373ffffffffffffffffffffffffffffffffffffffff1661145b82611178565b73ffffffffffffffffffffffffffffffffffffffff1614151561147d57600080fd5b6114883384846117aa565b505050565b61149733826118f3565b15156114a257600080fd5b6114b56114ae82611178565b33836117aa565b50565b6114c0611ee1565b6000600560009054906101000a900473ffffffffffffffffffffffffffffffffffffffff1673ffffffffffffffffffffffffffffffffffffffff163373ffffffffffffffffffffffffffffffffffffffff1614151561151e57600080fd5b610160604051908101604052808e81526020018d81526020018c81526020018b81526020018a815260200189815260200188815260200187815260200186815260200185815260200184815250915060016006839080600181540180825580915050906001820390600052602060002090600b02016000909192909190915060008201518160000190805190602001906115b9929190611f3c565b5060208201518160010190805190602001906115d6929190611f3c565b5060408201518160020155606082015181600301556080820151816004015560a0820151816005015560c0820151816006015560e082015181600701556101008201518160080155610120820151816009015561014082015181600a015550500390506116433382611934565b50505050505050505050505050565b600560009054906101000a900473ffffffffffffffffffffffffffffffffffffffff1673ffffffffffffffffffffffffffffffffffffffff163373ffffffffffffffffffffffffffffffffffffffff161415156116ae57600080fd5b600073ffffffffffffffffffffffffffffffffffffffff168173ffffffffffffffffffffffffffffffffffffffff16141515156116ea57600080fd5b8073ffffffffffffffffffffffffffffffffffffffff16600560009054906101000a900473ffffffffffffffffffffffffffffffffffffffff1673ffffffffffffffffffffffffffffffffffffffff167f8be0079c531659141344cd1fd0a4f28419497f9722a3daafe3b4186f6b6457e060405160405180910390a380600560006101000a81548173ffffffffffffffffffffffffffffffffffffffff021916908373ffffffffffffffffffffffffffffffffffffffff16021790555050565b600073ffffffffffffffffffffffffffffffffffffffff168273ffffffffffffffffffffffffffffffffffffffff16141515156117e657600080fd5b6117ef81611178565b73ffffffffffffffffffffffffffffffffffffffff168273ffffffffffffffffffffffffffffffffffffffff161415151561182957600080fd5b8273ffffffffffffffffffffffffffffffffffffffff1661184982611178565b73ffffffffffffffffffffffffffffffffffffffff1614151561186b57600080fd5b61187583826119ce565b61187f8382611ab7565b6118898282611d3c565b8173ffffffffffffffffffffffffffffffffffffffff168373ffffffffffffffffffffffffffffffffffffffff167fddf252ad1be2c89b69c2b068fc378daa952ba7f163c4a11628f55a4df523b3ef836040518082815260200191505060405180910390a3505050565b60008273ffffffffffffffffffffffffffffffffffffffff1661191583610e5b565b73ffffffffffffffffffffffffffffffffffffffff1614905092915050565b600073ffffffffffffffffffffffffffffffffffffffff168273ffffffffffffffffffffffffffffffffffffffff161415151561197057600080fd5b61197a8282611d3c565b8173ffffffffffffffffffffffffffffffffffffffff1660007fddf252ad1be2c89b69c2b068fc378daa952ba7f163c4a11628f55a4df523b3ef836040518082815260200191505060405180910390a35050565b8173ffffffffffffffffffffffffffffffffffffffff166119ee82611178565b73ffffffffffffffffffffffffffffffffffffffff16141515611a1057600080fd5b60006002600083815260200190815260200160002060006101000a81548173ffffffffffffffffffffffffffffffffffffffff021916908373ffffffffffffffffffffffffffffffffffffffff16021790555060008273ffffffffffffffffffffffffffffffffffffffff167f8c5be1e5ebec7d5bd14f71427d1e84f3dd0314c0f7b2291e5b200ac8c7c3b925836040518082815260200191505060405180910390a35050565b60008060008473ffffffffffffffffffffffffffffffffffffffff16611adc85611178565b73ffffffffffffffffffffffffffffffffffffffff16141515611afe57600080fd5b60046000858152602001908152602001600020549250611b306001611b22876111f6565b611eaa90919063ffffffff16565b9150600360008673ffffffffffffffffffffffffffffffffffffffff1673ffffffffffffffffffffffffffffffffffffffff16815260200190815260200160002082815481101515611b7e57fe5b9060005260206000200154905060006001600086815260200190815260200160002060006101000a81548173ffffffffffffffffffffffffffffffffffffffff021916908373ffffffffffffffffffffffffffffffffffffffff16021790555080600360008773ffffffffffffffffffffffffffffffffffffffff1673ffffffffffffffffffffffffffffffffffffffff16815260200190815260200160002084815481101515611c2b57fe5b90600052602060002001819055506000600360008773ffffffffffffffffffffffffffffffffffffffff1673ffffffffffffffffffffffffffffffffffffffff16815260200190815260200160002083815481101515611c8757fe5b9060005260206000200181905550600360008673ffffffffffffffffffffffffffffffffffffffff1673ffffffffffffffffffffffffffffffffffffffff168152602001908152602001600020805480919060019003611ce79190611fbc565b5060006004600086815260200190815260200160002081905550826004600083815260200190815260200160002081905550611d2f6001600054611eaa90919063ffffffff16565b6000819055505050505050565b60008073ffffffffffffffffffffffffffffffffffffffff166001600084815260200190815260200160002060009054906101000a900473ffffffffffffffffffffffffffffffffffffffff1673ffffffffffffffffffffffffffffffffffffffff16141515611dab57600080fd5b826001600084815260200190815260200160002060006101000a81548173ffffffffffffffffffffffffffffffffffffffff021916908373ffffffffffffffffffffffffffffffffffffffff160217905550611e06836111f6565b9050600360008473ffffffffffffffffffffffffffffffffffffffff1673ffffffffffffffffffffffffffffffffffffffff168152602001908152602001600020829080600181540180825580915050906001820390600052602060002001600090919290919091505550806004600084815260200190815260200160002081905550611e9f6001600054611ec390919063ffffffff16565b600081905550505050565b6000828211151515611eb857fe5b818303905092915050565b6000808284019050838110151515611ed757fe5b8091505092915050565b6101606040519081016040528060608152602001606081526020016000815260200160008152602001600081526020016000815260200160008152602001600081526020016000815260200160008152602001600081525090565b828054600181600116156101000203166002900490600052602060002090601f016020900481019282601f10611f7d57805160ff1916838001178555611fab565b82800160010185558215611fab579182015b82811115611faa578251825591602001919060010190611f8f565b5b509050611fb89190611fe8565b5090565b815481835581811115611fe357818360005260206000209182019101611fe29190611fe8565b5b505050565b61200a91905b80821115612006576000816000905550600101611fee565b5090565b905600a165627a7a72305820200dcbfd160d91328c2c3886af41fb88c6bfecc380a3d1dea9c075e21beff0a40029",
  "source": "pragma solidity ^0.4.17;\r\n\r\nimport 'zeppelin-solidity/contracts/token/ERC721/ERC721Token.sol';\r\nimport 'zeppelin-solidity/contracts/ownership/Ownable.sol';\r\n\r\ncontract BallerToken is ERC721Token, Ownable {\r\n    string public constant name = \"BallerToken\";\r\n    string public constant symbol = \"BALL\";\r\n\r\n    struct Baller {\r\n        string name;\r\n        string species;\r\n        uint strength;\r\n        uint speed;\r\n        uint shot;\r\n        uint pass;\r\n        uint confidence;\r\n        uint age;\r\n        uint position;\r\n        uint height;\r\n        uint shift;\r\n    }\r\n\r\n    Baller[] public ballers;\r\n\r\n    function mint(string _name, string _species, uint _strength, uint _speed, uint _shot, uint _pass, uint _confidence, uint _age, uint _position, uint _height, uint _shift) public payable onlyOwner {\r\n        Baller memory _baller = Baller({ name: _name, species: _species, strength: _strength, speed: _speed, shot: _shot, pass: _pass, confidence: _confidence, age: _age, position: _position, height: _height, shift: _shift });\r\n        uint _ballerId = ballers.push(_baller) - 1;\r\n\r\n        _mint(msg.sender, _ballerId);\r\n    }\r\n\r\n    function develop(uint _points, uint _assists, uint _rebounds, uint _steals, uint _blocks, uint _turnovers, uint _tokenId, uint _derivative) {\r\n        Baller memory _baller = ballers[_tokenId];\r\n\r\n        _baller.strength += (_rebounds + _blocks) * (_derivative + _baller.shift) * 4 / 100;\r\n        _baller.speed += (_assists + _steals) * (_derivative + _baller.shift) * 4 / 100;\r\n        _baller.shot += _points * (_derivative + _baller.shift) * 5 / 100;\r\n        _baller.pass += _assists * (_derivative + _baller.shift) * 4 / 100;\r\n        _baller.confidence += (_points + _rebounds - _turnovers) * (_derivative + _baller.shift) * 8 / 100;\r\n        _baller.age += 1;\r\n        _baller.shift += ((_points - (_baller.shot/3)) + (_assists - (_baller.pass/9)) + (_rebounds - (_baller.strength/6))) / 10;\r\n    }\r\n\r\n\r\n    function getBaller( uint _ballerId ) public view returns(string, string, uint, uint, uint, uint, uint, uint, uint, uint, uint) {\r\n        Baller memory _baller = ballers[_ballerId];\r\n\r\n        return (\r\n            _baller.name,\r\n            _baller.species,\r\n            _baller.strength,\r\n            _baller.speed,\r\n            _baller.shot,\r\n            _baller.pass,\r\n            _baller.confidence,\r\n            _baller.age,\r\n            _baller.position,\r\n            _baller.height,\r\n            _baller.shift\r\n        );\r\n    }\r\n}\r\n",
  "sourcePath": "C:\\Users\\Jackie\\dev\\baller-token\\contracts\\BallerToken.sol",
  "compiler": {
    "name": "solc",
    "version": "0.4.24+commit.e67f0147.Emscripten.clang"
  },
  "schemaVersion": "2.0.0",
  "updatedAt": "2018-06-16T15:10:21.027Z"
}