{
  "contractName": "TokenMarket",
  "abi": [
    {
      "constant": true,
      "inputs": [],
      "name": "nonFungibleContract",
      "outputs": [
        {
          "name": "",
          "type": "address"
        }
      ],
      "payable": false,
      "stateMutability": "view",
      "type": "function"
    },
    {
      "constant": true,
      "inputs": [
        {
          "name": "",
          "type": "uint256"
        }
      ],
      "name": "tokenIdToListing",
      "outputs": [
        {
          "name": "seller",
          "type": "address"
        },
        {
          "name": "price",
          "type": "uint128"
        }
      ],
      "payable": false,
      "stateMutability": "view",
      "type": "function"
    },
    {
      "inputs": [
        {
          "name": "_nftAddress",
          "type": "address"
        }
      ],
      "payable": false,
      "stateMutability": "nonpayable",
      "type": "constructor"
    },
    {
      "constant": false,
      "inputs": [
        {
          "name": "_tokenId",
          "type": "uint256"
        },
        {
          "name": "_price",
          "type": "uint128"
        }
      ],
      "name": "createListing",
      "outputs": [],
      "payable": false,
      "stateMutability": "nonpayable",
      "type": "function"
    },
    {
      "constant": false,
      "inputs": [
        {
          "name": "_tokenId",
          "type": "uint256"
        }
      ],
      "name": "buy",
      "outputs": [],
      "payable": true,
      "stateMutability": "payable",
      "type": "function"
    },
    {
      "constant": false,
      "inputs": [
        {
          "name": "_tokenId",
          "type": "uint256"
        }
      ],
      "name": "cancel",
      "outputs": [],
      "payable": false,
      "stateMutability": "nonpayable",
      "type": "function"
    }
  ],
  "bytecode": "0x608060405234801561001057600080fd5b50604051602080610a1d83398101806040528101908080519060200190929190505050806000806101000a81548173ffffffffffffffffffffffffffffffffffffffff021916908373ffffffffffffffffffffffffffffffffffffffff1602179055505061099a806100836000396000f30060806040526004361061006d576000357c0100000000000000000000000000000000000000000000000000000000900463ffffffff16806340e58ee5146100725780636e8acf1b1461009f578063d96a094a146100e8578063dd1b7a0f14610108578063ffde808d1461015f575b600080fd5b34801561007e57600080fd5b5061009d600480360381019080803590602001909291905050506101f7565b005b3480156100ab57600080fd5b506100e66004803603810190808035906020019092919080356fffffffffffffffffffffffffffffffff16906020019092919050505061043d565b005b610106600480360381019080803590602001909291905050506105ce565b005b34801561011457600080fd5b5061011d6108a7565b604051808273ffffffffffffffffffffffffffffffffffffffff1673ffffffffffffffffffffffffffffffffffffffff16815260200191505060405180910390f35b34801561016b57600080fd5b5061018a600480360381019080803590602001909291905050506108cc565b604051808373ffffffffffffffffffffffffffffffffffffffff1673ffffffffffffffffffffffffffffffffffffffff168152602001826fffffffffffffffffffffffffffffffff166fffffffffffffffffffffffffffffffff1681526020019250505060405180910390f35b6101ff61092c565b600160008381526020019081526020016000206040805190810160405290816000820160009054906101000a900473ffffffffffffffffffffffffffffffffffffffff1673ffffffffffffffffffffffffffffffffffffffff1673ffffffffffffffffffffffffffffffffffffffff1681526020016001820160009054906101000a90046fffffffffffffffffffffffffffffffff166fffffffffffffffffffffffffffffffff166fffffffffffffffffffffffffffffffff168152505090503373ffffffffffffffffffffffffffffffffffffffff16816000015173ffffffffffffffffffffffffffffffffffffffff161415156102fd57600080fd5b60016000838152602001908152602001600020600080820160006101000a81549073ffffffffffffffffffffffffffffffffffffffff02191690556001820160006101000a8154906fffffffffffffffffffffffffffffffff021916905550506000809054906101000a900473ffffffffffffffffffffffffffffffffffffffff1673ffffffffffffffffffffffffffffffffffffffff1663a9059cbb33846040518363ffffffff167c0100000000000000000000000000000000000000000000000000000000028152600401808373ffffffffffffffffffffffffffffffffffffffff1673ffffffffffffffffffffffffffffffffffffffff16815260200182815260200192505050600060405180830381600087803b15801561042157600080fd5b505af1158015610435573d6000803e3d6000fd5b505050505050565b61044561092c565b6000809054906101000a900473ffffffffffffffffffffffffffffffffffffffff1673ffffffffffffffffffffffffffffffffffffffff1663b2e6ceeb846040518263ffffffff167c010000000000000000000000000000000000000000000000000000000002815260040180828152602001915050600060405180830381600087803b1580156104d557600080fd5b505af11580156104e9573d6000803e3d6000fd5b5050505060408051908101604052803373ffffffffffffffffffffffffffffffffffffffff168152602001836fffffffffffffffffffffffffffffffff168152509050806001600085815260200190815260200160002060008201518160000160006101000a81548173ffffffffffffffffffffffffffffffffffffffff021916908373ffffffffffffffffffffffffffffffffffffffff16021790555060208201518160010160006101000a8154816fffffffffffffffffffffffffffffffff02191690836fffffffffffffffffffffffffffffffff160217905550905050505050565b6105d661092c565b600080600160008581526020019081526020016000206040805190810160405290816000820160009054906101000a900473ffffffffffffffffffffffffffffffffffffffff1673ffffffffffffffffffffffffffffffffffffffff1673ffffffffffffffffffffffffffffffffffffffff1681526020016001820160009054906101000a90046fffffffffffffffffffffffffffffffff166fffffffffffffffffffffffffffffffff166fffffffffffffffffffffffffffffffff16815250509250600073ffffffffffffffffffffffffffffffffffffffff16836000015173ffffffffffffffffffffffffffffffffffffffff16141515156106d957600080fd5b82602001516fffffffffffffffffffffffffffffffff1634101515156106fe57600080fd5b826000015191508260200151905060016000858152602001908152602001600020600080820160006101000a81549073ffffffffffffffffffffffffffffffffffffffff02191690556001820160006101000a8154906fffffffffffffffffffffffffffffffff021916905550508173ffffffffffffffffffffffffffffffffffffffff166108fc826fffffffffffffffffffffffffffffffff169081150290604051600060405180830381858888f193505050501580156107c4573d6000803e3d6000fd5b506000809054906101000a900473ffffffffffffffffffffffffffffffffffffffff1673ffffffffffffffffffffffffffffffffffffffff1663a9059cbb33866040518363ffffffff167c0100000000000000000000000000000000000000000000000000000000028152600401808373ffffffffffffffffffffffffffffffffffffffff1673ffffffffffffffffffffffffffffffffffffffff16815260200182815260200192505050600060405180830381600087803b15801561088957600080fd5b505af115801561089d573d6000803e3d6000fd5b5050505050505050565b6000809054906101000a900473ffffffffffffffffffffffffffffffffffffffff1681565b60016020528060005260406000206000915090508060000160009054906101000a900473ffffffffffffffffffffffffffffffffffffffff16908060010160009054906101000a90046fffffffffffffffffffffffffffffffff16905082565b6040805190810160405280600073ffffffffffffffffffffffffffffffffffffffff16815260200160006fffffffffffffffffffffffffffffffff16815250905600a165627a7a723058204f057cf81c56194946b827987564611cd3410c9f9fd2916038e24022f7aba3da0029",
  "source": "pragma solidity ^0.4.17;\r\n\r\nimport \"zeppelin-solidity/contracts/token/ERC721/ERC721.sol\";\r\n\r\ncontract TokenMarket {\r\n    ERC721 public nonFungibleContract;\r\n\r\n    struct Listing {\r\n      address seller;\r\n      uint128 price;\r\n    }\r\n\r\n    mapping (uint256 => Listing) public tokenIdToListing;\r\n\r\n    function TokenMarket(address _nftAddress) public {\r\n        nonFungibleContract = ERC721(_nftAddress);\r\n    }\r\n\r\n    function createListing( uint256 _tokenId, uint128 _price ) public {\r\n      nonFungibleContract.takeOwnership(_tokenId);\r\n      Listing memory _listing = Listing({\r\n         seller: msg.sender,\r\n         price: uint128(_price)\r\n      });\r\n      tokenIdToListing[_tokenId] = _listing;\r\n    }\r\n\r\n    function buy( uint256 _tokenId ) public payable {\r\n      Listing memory listing = tokenIdToListing[_tokenId];\r\n      require(listing.seller != address(0));\r\n      require(msg.value >= listing.price);\r\n\r\n      address seller = listing.seller;\r\n      uint128 price = listing.price;\r\n\r\n      delete tokenIdToListing[_tokenId];\r\n\r\n      seller.transfer(price);\r\n      nonFungibleContract.transfer(msg.sender, _tokenId);\r\n    }\r\n\r\n    function cancel( uint256 _tokenId ) public {\r\n      Listing memory listing = tokenIdToListing[_tokenId];\r\n      require(listing.seller == msg.sender);\r\n\r\n      delete tokenIdToListing[_tokenId];\r\n\r\n      nonFungibleContract.transfer(msg.sender, _tokenId);\r\n    }\r\n}\r\n",
  "sourcePath": "C:\\Users\\Jackie\\dev\\baller-token\\contracts\\TokenMarket.sol",
  "compiler": {
    "name": "solc",
    "version": "0.4.24+commit.e67f0147.Emscripten.clang"
  },
  "schemaVersion": "2.0.0",
  "updatedAt": "2018-06-16T15:10:21.027Z"
}